:030000000209668C
:0C096600787FE4F6D8FD7581640209ADCD
:060D210068656C6C6F00B8
:0B0CF3000000007F0B7EBEDEFEDFFC79
:010CFE0022D3
:040CA200AD07AC06E8
:100CA600E4FBFAC3EB9DEA9C500A120CF30BBB0063
:040CB600010A80EFC0
:010CBA002217
:05000300007F0BDFFE91
:0100080022D5
:0A0D1700E4F5CF75CDC075CE502273
:06000E00F5828C83E0FF87
:0B0014008FCFE5CD30E7FB75CDC0229B
:100CD400438E805389F0758AAE758CFBC28DD28C9D
:010CE40022ED
:03000B00020A7472
:0D0A7400C0E0C0F0C083C082C0D075D008C3
:100A8100C2AFC28C051AE51AC394084020751A003A
:100A91000517E51794084003751700D2A2AF177424
:100AA10001A80F088002C333D8FCF4F580C2A1E588
:100AB1001775F018A42402F582E43400F58375F06B
:100AC10003E51A1206A6AD82AC83E0FF1200140DF5
:100AD100ED70010C12000E0DED70010C12000ED222
:070AE100A1C2A2D28CD2AF2A
:0B0AE800D0D0D082D083D0F0D0E0321C
:060BE4008B338A348935D1
:100BEA007E007F087D001206B2E4FFE4FEAB36AA5F
:100BFA0037A9388F82758300120631D39E401DAB08
:100C0A0033E5352EF9E43534FA120618FD7401A8D5
:100C1A0007088002C333D8FC4D12065E0EBE08CD0B
:040C2A000FBF08C729
:010C2E0022A3
:0B09F2007FC07B017A0079C21206B2C0
:1009FD00E4F531E4F532E53175F018A424C2F9744B
:100A0D000035F0FAE53275F008A429F9EA35F075EC
:100A1D003601F53789387B017A017982120BE4E4CE
:100A2D00FF74822FF582E43401F583E0FEE5317524
:100A3D00F018A42402F582E43400F58375F003EF79
:100A4D001206A6E5822532F582E43583F583EEF0B4
:100A5D000FBF08CD0532E532C3940340990531E54A
:060A6D0031C39408408D26
:010A73002260
:10038200E5187003020617E518D39402400302062B
:1003920017E51864016003020468F52EE4F52F12D4
:1003A2000B977C007D08120670AF05E52FFD339593
:1003B200E0FCE52EFB3395E0FA9000C275F018EBF5
:1003C2001206A6EA75F018A42583F583E5822DF5B9
:1003D20082E5833CF583EFF0120B977C007D0812D7
:1003E2000670AF05E52FFD3395E0FCE52EFB339556
:1003F200E0FA9000D275F018EB1206A6EA75F01832
:10040200A42583F583E5822DF582E5833CF583EF10
:10041200F0120B977C007D08120670AF05E52FFDE8
:100422003395E0FCE52EFB3395E0FA9000CA75F0B7
:1004320018EB1206A6EA75F018A42583F583E58267
:100442002DF582E5833CF583EFF0052FC3E52F649C
:1004520080948850030203A1052EC3E52E64809484
:1004620088500302039EE51864026003020614F535
:100472002E7410252EF8E6FFC3648094804007EFA7
:100482006480948840077410252EF8E4F6741325CE
:100492002EF8E6FFF46020EF6401601B120B977CDC
:1004A200007D02120670ED4C60047F0180027FFF26
:1004B2007413252EF8A6077413252EF8E6FF741080
:1004C200252EF8E62FF530C3648094804008E5308D
:1004D200648094884038120B977C007D0A12067063
:1004E200C3ED9403EC64809480500A7410252EF8B6
:1004F200E6F53080197413252EF8E6F404F6741329
:10050200252EF8E6FF7410252EF8E62FF53074102C
:10051200252EF8A630052EC3E52E64809483500361
:10052200020473E4F52EE4F52FD3E5116480F8E5B7
:100532002E6480984006E52E95118005C3E511953D
:100542002EFFC374079FFFE52FFD3395E0FCE52ED8
:10055200FB3395E0FA9000C275F018EB1206A6EA9A
:1005620075F018A42583F583E5822DF582E5833C99
:10057200F583EFF0D3E5126480F8E52F64809840AC
:1005820006E52F95128005C3E512952FFFC3740768
:100592009FFFE52FFD3395E0FC9000CA75F018EB44
:1005A2001206A6EA75F018A42583F583E5822DF5D7
:1005B20082E5833CF583EFF0D3E5106480F8E52E05
:1005C2006480984006E52E95108005C3E510952EAF
:1005D200FFC374079FFFE52EFB3395E0FA9000D22C
:1005E20075F018EB1206A6EA75F018A42583F583B8
:1005F200E5822DF582E5833CF583EFF0052FE52FAB
:100602006408600302052B052EE52E6408600302D0
:0506120005281209FD9E
:0106170022C0
:100B48007E007D001209F2E4F563E4F564E563755F
:100B5800F018A424C2F582E43400F583E582256404
:100B6800F582E43583F5837401F01209FD7FE87E90
:100B780003120CA20564E564C3941840D00563E52C
:0F0B880063C3940840C47FE87E03120CA280B1BF
:10076900E4F518F519F516E4F52AF52B120CF33012
:10077900A417E5167013052BE52B7002052AC394FF
:1007890064E52A6480948040E3E5166006E4F51682
:100799001209FD30A4030208917F0A7E00120CA2FF
:1007A90030A40302089130A4FD7F0A7E00120CA236
:1007B90030A4F30518E518D394025003020891E513
:1007C90018D39409400AE4F518FEFD1209F280973E
:1007D900E51824FEFF1313543FF52CEFC3135401FE
:1007E900F52DEF5401F9E52C75F007A4F52CE52D4D
:1007F90075F007A4F52DE975F007A4F9E4F52AF5D4
:100809002BE4FFFE9000C275F018E52B1206A6E551
:100819002A75F018A42583F583E5822FF582E583EF
:100829003EF583E52CF09000CA75F018E52B120609
:10083900A6E52A75F018A42583F583E5822FF582AC
:10084900E5833EF583E9F09000D275F018E52B12A7
:1008590006A6E52A75F018A42583F583E5822FF508
:1008690082E5833EF583E52DF00FBF00010EEF64AD
:10087900084E7090052BE52B7002052A6408452A5D
:0E088900600302080A1209FD120382020770C2
:0300230002089739
:10089700C0E0C0F0C083C082C0D075D000C000C027
:0D08A70001C002C003C004C005C006C007A8
:1008B400C2AF309905C29902094920980302094937
:1008C400C298859939E539B4FC05120CE580FEE53A
:1008D4003920E736E519C394C0506AE5395407FF57
:1008E40074C22519F582E43400F583EFF0E5395438
:1008F40038131313541FFF74C32519F582E434000D
:10090400F583EFF005190519803BE5392405601DD1
:1009140024FE6024146026146028240570277E00B9
:100924007FC07D007B017A0079C21206B27518007F
:10093400751900751601800D751801800875180267
:070944008003751803D2AF18
:10094B00D007D006D005D004D003D002D001D00000
:0B095B00D0D0D082D083D0F0D0E032AA
:100AF3007F647E00120CA2120CBBD2AF7BFF7A0D77
:100B03007921120C2F120D17E4FF12001412001496
:100B1300120014E4F517F51AFE7FC0FD7B017A007D
:100B230079021206B27E007FC07D007B017A0079D4
:100B3300C21206B2D2A1D2A27580FF120CD4D2A9DE
:050B430012076980FEAD
:04001F0025752C0017
:030D2700014E007A
:100CBB00759850438E40538EFE53890F758BE0759C
:090CCB008DFEC2ABD28ED2AC2228
:0C0CFF00C2AC8F993099FDC299D2AC2292
:0B0D0B00C2AC3098FDAF99C298D2AC8A
:010D160022BA
:060C2F008B2A8A2B892CA0
:100C3500E4FEAB2AAA2BA92C8E82758300120631FD
:100C45006011AF060E8F82758300120631FF120CFC
:030C5500FF80DF3E
:010C58002279
:100C8000120C2F7552FF75530075541F8C558D56DD
:100C90007B007A00793A1200827B007A00793A026E
:020CA0000C2F17
:0E0CE500C2AF7FD07E07120CA275C76080FEE2
:10097200020AF3E493A3F8E493A34003F68001F29E
:1009820008DFF48029E493A3F85407240CC8C33386
:10099200C4540F4420C8834004F456800146F6DF55
:1009A200E4800B0102040810204080900D27E47EB1
:1009B200019360BCA3FF543F30E509541FFEE4934A
:1009C200A360010ECF54C025E060A840B8E493A311
:1009D200FAE493A3F8E493A3C8C582C8CAC583CA3C
:1009E200F0A3C8C582C8CAC583CADFE9DEE780BEF4
:010D2A0000C8
:10061800BB010689828A83E0225002E722BBFE02E0
:09062800E32289828A83E4932213
:10063100BB010CE58229F582E5833AF583E022507E
:1006410006E92582F8E622BBFE06E92582F8E222C8
:0D065100E58229F582E5833AF583E49322E2
:10065E00BB010689828A83F0225002F722BBFE017B
:02066E00F32275
:10067000C2D5EC30E709B2D5E4C39DFDE49CFCEEA5
:1006800030E715B2D5E4C39FFFE49EFE1206DEC339
:10069000E49DFDE49CFC80031206DE30D507C3E434
:0606A0009FFFE49EFE2214
:0C06A600A42582F582E5F03583F583225F
:10002600E55E2452F8E6055E22784F3007027852E4
:10003600E475F0011207330206182000EB7F2ED27A
:10004600008018EF540F2490D43440D4FF30040BB2
:10005600EF24BFB41A0050032461FFE55F60021568
:100066005F0562E5627002056130070D784FE47541
:10007600F001120733EF02065E020C597403D20731
:100086008003E4C207F55E8B4F8A508951E4F55F21
:10009600F561F562E55F60077F2012006180F57506
:1000A60060FFC201C200C202C203C205C206C20884
:1000B60012002FFF700D3007057F00120072AF622D
:1000C600AE6122B4255FC2D5C20412002FFF24D030
:1000D600B40A00501A75F00A785F30D50508B6FFE5
:1000E6000106C6A426F620D5047002D20380D924C0
:1000F600CFB41A00EF5004C2E5D204020272D20154
:1001060080C6D20080C0D20280BCD2D580BAD205C9
:1001160080B47F201200612002077401B55F0040A1
:10012600F1120026FF12006102009AD208D2068060
:1001360095120026FB120026FA120026F94A4B7089
:100146000679437A037BFF20022EE55F602A7E0054
:100156008E8275830012063160060EEE656070F0C1
:10016600C2D5EBC0E0EAC0E0E9C0E0EE1202B9D0C9
:10017600E0F9D0E0FAD0E0FB120618FF60AAEBC067
:10018600E0EAC0E0E9C0E0120061D0E02401F9D065
:10019600E03400FAD0E0FBE5600460DCD560D9808D
:1001A600877BFF7A0279B5D202809C79108002792A
:1001B60008C206C2088008D2D5790A8004790AC224
:1001C600D5E560047002F560E4FAFDFEFF12002634
:1001D600FC7B08200113120026FD7B1030000A125A
:1001E6000026FE120026FF7B20EC3382D592D550E6
:1001F60013C3E43000069FFFE49EFEE42001039D46
:10020600FDE49CFCE4CBF8C201EC700CCFCECDCC67
:10021600E824F8F870F38017C3EF33FFEE33FEEDF2
:1002260033FDEC33FCEB33FB994002FB0FD8E9EBD3
:10023600300105F8D0E0C448B201C0E00AEC4D4EEA
:100246004F78207B0070C2EAB5600040BCC0E01267
:1002560002BBD0F0D0E0200104C4C0E0C4B201C0AB
:10026600F012004AD0F0D5F0EB02009A12074301D3
:10027600375301B15801084C01044201B54F01BD85
:0F0286004401BD49011D4301C35501A74601A70E
:100295004501A747036350010C2D01102E01332B97
:1002A500011423013120034C2A00CC480000012B06
:1002B5003F3F3F00790AA2D5200314300509B91044
:1002C500020404B9080104A2D52006025001042045
:1002D50002689202B55F005034C0E07F20300319F8
:1002E5007F30A20272067205500F120312C202C2BB
:1002F50006C205C2087F30800F300503E9C0E01251
:100305000061300503D0E0F9D0E0B55FCC300517CA
:100315007F30B9100C1200617F583004077F788058
:1003250003B908031200613002057F2D0200617FC9
:10033500202008F87F2B2006F322920280CF286E1A
:10034500756C6C2900D2011200263001F8C20178C3
:100355005F30D50108F60200CC2D504349581200F4
:10036500262403B405004001E490035E9312005275
:0D037500743A120052D203755F040201B108
:100B9700AC1BAD1CAE1DAF1E7810EC4D4E4F700454
:100BA7007CA57DA5C3EC13FCED13FDEE13FEEF133F
:100BB700FF5010EC64CCFCED644CFDEE644EFEEF90
:100BC70064CEFFD8DF8C1B8D1C8E1D8F1EEE547FCD
:0D0BD700FE228E1B8F1C74A5F51DF51E223D
:1006B200EF4E6012EF60010EEDBB010B89828A835F
:1006C200F0A3DFFCDEFA2289F05007F709DFFCA96C
:0C06D200F022BBFEFCF309DFFCA9F022C3
:1006DE00BC000BBE0029EF8DF084FFADF022E4CC00
:1006EE00F875F008EF2FFFEE33FEEC33FCEE9DECC9
:1006FE00984005FCEE9DFE0FD5F0E9E4CEFD22ED0F
:10070E00F8F5F0EE8420D21CFEADF075F008EF2F58
:10071E00FFED33FD4007985006D5F0F222C398FD49
:05072E000FD5F0EA22E6
:10073300FAE6FB0808E6F925F0F618E6CA3AF622C7
:10074300D083D082F8E4937012740193700DA3A345
:1007530093F8740193F5828883E473740293686059
:06076300EFA3A3A380DF59
:100C5900EFB40A07740D120C64740A309811A8993C
:100C6900B8130CC2983098FDA899C298B811F630FB
:070C790099FDC299F59922D3
:00000001FF
